{
  "_format": "hh-sol-artifact-1",
  "contractName": "TodoList",
  "sourceName": "contracts/todo.sol",
  "abi": [
    {
      "anonymous": false,
      "inputs": [
        {
          "indexed": false,
          "internalType": "uint256",
          "name": "id",
          "type": "uint256"
        },
        {
          "indexed": false,
          "internalType": "bool",
          "name": "completed",
          "type": "bool"
        }
      ],
      "name": "TaskCompleted",
      "type": "event"
    },
    {
      "anonymous": false,
      "inputs": [
        {
          "indexed": false,
          "internalType": "uint256",
          "name": "id",
          "type": "uint256"
        },
        {
          "indexed": false,
          "internalType": "string",
          "name": "description",
          "type": "string"
        }
      ],
      "name": "TaskCreated",
      "type": "event"
    },
    {
      "inputs": [
        {
          "internalType": "string",
          "name": "_description",
          "type": "string"
        }
      ],
      "name": "addTask",
      "outputs": [],
      "stateMutability": "nonpayable",
      "type": "function"
    },
    {
      "inputs": [],
      "name": "getAllTasks",
      "outputs": [
        {
          "components": [
            {
              "internalType": "uint256",
              "name": "id",
              "type": "uint256"
            },
            {
              "internalType": "string",
              "name": "description",
              "type": "string"
            },
            {
              "internalType": "bool",
              "name": "completed",
              "type": "bool"
            }
          ],
          "internalType": "struct TodoList.Task[]",
          "name": "",
          "type": "tuple[]"
        }
      ],
      "stateMutability": "view",
      "type": "function"
    },
    {
      "inputs": [
        {
          "internalType": "uint256",
          "name": "_id",
          "type": "uint256"
        }
      ],
      "name": "getTask",
      "outputs": [
        {
          "internalType": "uint256",
          "name": "",
          "type": "uint256"
        },
        {
          "internalType": "string",
          "name": "",
          "type": "string"
        },
        {
          "internalType": "bool",
          "name": "",
          "type": "bool"
        }
      ],
      "stateMutability": "view",
      "type": "function"
    },
    {
      "inputs": [
        {
          "internalType": "uint256",
          "name": "_id",
          "type": "uint256"
        }
      ],
      "name": "markTaskCompleted",
      "outputs": [],
      "stateMutability": "nonpayable",
      "type": "function"
    },
    {
      "inputs": [],
      "name": "nextId",
      "outputs": [
        {
          "internalType": "uint256",
          "name": "",
          "type": "uint256"
        }
      ],
      "stateMutability": "view",
      "type": "function"
    },
    {
      "inputs": [
        {
          "internalType": "uint256",
          "name": "",
          "type": "uint256"
        }
      ],
      "name": "tasks",
      "outputs": [
        {
          "internalType": "uint256",
          "name": "id",
          "type": "uint256"
        },
        {
          "internalType": "string",
          "name": "description",
          "type": "string"
        },
        {
          "internalType": "bool",
          "name": "completed",
          "type": "bool"
        }
      ],
      "stateMutability": "view",
      "type": "function"
    }
  ],
  "bytecode": "0x608060405234801561001057600080fd5b50610d3b806100206000396000f3fe608060405234801561001057600080fd5b50600436106100615760003560e01c80620b2bda146100665780631d65e77e1461008257806361b8ce8c146100b457806367238562146100d2578063779900b4146100ee5780638d9776721461010c575b600080fd5b610080600480360381019061007b91906107d2565b61013e565b005b61009c600480360381019061009791906107d2565b610226565b6040516100ab93929190610a78565b60405180910390f35b6100bc61039c565b6040516100c99190610a04565b60405180910390f35b6100ec60048036038101906100e79190610791565b6103a2565b005b6100f661048c565b60405161010391906109c2565b60405180910390f35b610126600480360381019061012191906107d2565b6105a2565b60405161013593929190610a78565b60405180910390f35b6000805490508110610185576040517f08c379a000000000000000000000000000000000000000000000000000000000815260040161017c906109e4565b60405180910390fd5b6001600082815481106101c1577f4e487b7100000000000000000000000000000000000000000000000000000000600052603260045260246000fd5b906000526020600020906003020160020160006101000a81548160ff0219169083151502179055507fe21fa966ca5cd02748c0752352d18c48165e61cb55b4c29cccf924b5a95fcff181600160405161021b929190610a1f565b60405180910390a150565b60006060600080805490508410610272576040517f08c379a0000000000000000000000000000000000000000000000000000000008152600401610269906109e4565b60405180910390fd5b60008085815481106102ad577f4e487b7100000000000000000000000000000000000000000000000000000000600052603260045260246000fd5b9060005260206000209060030201604051806060016040529081600082015481526020016001820180546102e090610bd5565b80601f016020809104026020016040519081016040528092919081815260200182805461030c90610bd5565b80156103595780601f1061032e57610100808354040283529160200191610359565b820191906000526020600020905b81548152906001019060200180831161033c57829003601f168201915b505050505081526020016002820160009054906101000a900460ff1615151515815250509050806000015181602001518260400151935093509350509193909250565b60015481565b600060405180606001604052806001548152602001838152602001600015158152509080600181540180825580915050600190039060005260206000209060030201600090919091909150600082015181600001556020820151816001019080519060200190610413929190610671565b5060408201518160020160006101000a81548160ff02191690831515021790555050507fa5ed9e6226c584326505694539c95cb0e3238ae09bcda5a65c00bbfdab1c666260015482604051610469929190610a48565b60405180910390a16001600081548092919061048490610c07565b919050555050565b60606000805480602002602001604051908101604052809291908181526020016000905b828210156105995783829060005260206000209060030201604051806060016040529081600082015481526020016001820180546104ed90610bd5565b80601f016020809104026020016040519081016040528092919081815260200182805461051990610bd5565b80156105665780601f1061053b57610100808354040283529160200191610566565b820191906000526020600020905b81548152906001019060200180831161054957829003601f168201915b505050505081526020016002820160009054906101000a900460ff161515151581525050815260200190600101906104b0565b50505050905090565b600081815481106105b257600080fd5b90600052602060002090600302016000915090508060000154908060010180546105db90610bd5565b80601f016020809104026020016040519081016040528092919081815260200182805461060790610bd5565b80156106545780601f1061062957610100808354040283529160200191610654565b820191906000526020600020905b81548152906001019060200180831161063757829003601f168201915b5050505050908060020160009054906101000a900460ff16905083565b82805461067d90610bd5565b90600052602060002090601f01602090048101928261069f57600085556106e6565b82601f106106b857805160ff19168380011785556106e6565b828001600101855582156106e6579182015b828111156106e55782518255916020019190600101906106ca565b5b5090506106f391906106f7565b5090565b5b808211156107105760008160009055506001016106f8565b5090565b600061072761072284610ae7565b610ab6565b90508281526020810184848401111561073f57600080fd5b61074a848285610b93565b509392505050565b600082601f83011261076357600080fd5b8135610773848260208601610714565b91505092915050565b60008135905061078b81610cee565b92915050565b6000602082840312156107a357600080fd5b600082013567ffffffffffffffff8111156107bd57600080fd5b6107c984828501610752565b91505092915050565b6000602082840312156107e457600080fd5b60006107f28482850161077c565b91505092915050565b60006108078383610954565b905092915050565b600061081a82610b27565b6108248185610b4a565b93508360208202850161083685610b17565b8060005b85811015610872578484038952815161085385826107fb565b945061085e83610b3d565b925060208a0199505060018101905061083a565b50829750879550505050505092915050565b61088d81610b7d565b82525050565b61089c81610b7d565b82525050565b60006108ad82610b32565b6108b78185610b5b565b93506108c7818560208601610ba2565b6108d081610cdd565b840191505092915050565b60006108e682610b32565b6108f08185610b6c565b9350610900818560208601610ba2565b61090981610cdd565b840191505092915050565b6000610921601383610b6c565b91507f5461736b20646f6573206e6f74206578697374000000000000000000000000006000830152602082019050919050565b600060608301600083015161096c60008601826109a4565b506020830151848203602086015261098482826108a2565b91505060408301516109996040860182610884565b508091505092915050565b6109ad81610b89565b82525050565b6109bc81610b89565b82525050565b600060208201905081810360008301526109dc818461080f565b905092915050565b600060208201905081810360008301526109fd81610914565b9050919050565b6000602082019050610a1960008301846109b3565b92915050565b6000604082019050610a3460008301856109b3565b610a416020830184610893565b9392505050565b6000604082019050610a5d60008301856109b3565b8181036020830152610a6f81846108db565b90509392505050565b6000606082019050610a8d60008301866109b3565b8181036020830152610a9f81856108db565b9050610aae6040830184610893565b949350505050565b6000604051905081810181811067ffffffffffffffff82111715610add57610adc610cae565b5b8060405250919050565b600067ffffffffffffffff821115610b0257610b01610cae565b5b601f19601f8301169050602081019050919050565b6000819050602082019050919050565b600081519050919050565b600081519050919050565b6000602082019050919050565b600082825260208201905092915050565b600082825260208201905092915050565b600082825260208201905092915050565b60008115159050919050565b6000819050919050565b82818337600083830152505050565b60005b83811015610bc0578082015181840152602081019050610ba5565b83811115610bcf576000848401525b50505050565b60006002820490506001821680610bed57607f821691505b60208210811415610c0157610c00610c7f565b5b50919050565b6000610c1282610b89565b91507fffffffffffffffffffffffffffffffffffffffffffffffffffffffffffffffff821415610c4557610c44610c50565b5b600182019050919050565b7f4e487b7100000000000000000000000000000000000000000000000000000000600052601160045260246000fd5b7f4e487b7100000000000000000000000000000000000000000000000000000000600052602260045260246000fd5b7f4e487b7100000000000000000000000000000000000000000000000000000000600052604160045260246000fd5b6000601f19601f8301169050919050565b610cf781610b89565b8114610d0257600080fd5b5056fea2646970667358221220868b9462549cfde6e558385a063fc5022b5344ffbabc89a66ee08eae4438b2d264736f6c63430008000033",
  "linkReferences": {},
  "deployedLinkReferences": {}
}